:1000000000000420190200000102000003020000A9
:1000100005020000070200000902000000000000C5
:100020000000000000000000000000000B020000C3
:100030000D020000000000000F020000110200008D
:100040001302000013020000250D0000351300000C
:100050004D13000013020000130200001302000001
:10006000130200001302000013020000130200003C
:10007000130200001302000013020000130200002C
:10008000130200001302000013020000130200001C
:10009000130200001302000013020000130200000C
:1000A00013020000130200001302000013020000FC
:1000B0001302000013020000000000000000000016
:1000C00013020000130200001302000013020000DC
:1000D00013020000130200001302000013020000CC
:1000E00013020000130200001302000000000000D1
:1000F00000000000130200000000000013020000D6
:1001000000000000000000000000000000000000EF
:1001100000000000000000000000000000000000DF
:1001200000000000000000000000000000000000CF
:1001300000000000000000000000000000000000BF
:1001400000000000000000000000000000000000AF
:10015000000000000000000000000000000000009F
:10016000000000000000000000000000000000008F
:10017000000000000000000000000000000000007F
:10018000000000000000000000000000000000006F
:10019000000000000000000000000000000000005F
:1001A000000000000000000000000000000000004F
:1001B000000000000000000000000000000000003F
:1001C000000000000000000000000000000000002F
:1001D000000000000000000000000000000000001F
:1001E000000000000000000000000000000000000F
:1001F00000000000000000000000000000000000FF
:10020000FEE7FEE7FEE7FEE7FEE7FEE7FEE7FEE7C6
:10021000FEE7FEE700F002B8FFF7FCBF0F484FF023
:100220000701884385460E4880470E48016841F41F
:1002300070010160BFF34F8FBFF36F8F00F01AB8EA
:1002400009480A490A4A884207D0521A05D0037859
:1002500001300B700131013AF9D1704700000420E0
:100260008109000088ED00E0085700000000002030
:10027000000000203A493B480A1A02D00722914365
:100280008D46394939480A1A06D00722914381F32D
:100290000988022282F3148835483649364A00F02C
:1002A00041F836483649374A00F03CF83648374975
:1002B000374A00F037F837483749384A00F032F803
:1002C00037483849384A00F02DF838483849394A13
:1002D00000F028F838483949394A00F023F83948FD
:1002E0003949002200F036F838483949002200F038
:1002F00031F838483849091A05F024F9374A904747
:1003000025482649884205D00268043003B4904746
:1003100003BCF7E700208646EC4600200021304A67
:100320009047FEE7884214D0521A12D003460B437E
:1003300013430324234206D1036804300B600431C5
:10034000043AF9D17047037801300B700131013A5A
:10035000F9D17047884202D002700130FAE7704745
:100360000000042000E0032000000420000004201E
:100370009C6500000000002070000020E4030000E5
:10038000E4030000BC5600009C6500000000002053
:100390000000002008570000085700000857000020
:1003A00008570000085700000857000008570000D1
:1003B000085700009C6500000C66000070000020DB
:1003C000700000207000002040070020400700203F
:1003D0004007002040070020402700204102000085
:0403E0008105000093
:1003E40000B587B00390029113468DF807300023BF
:1003F4000593039B1B781A46114B9B5C002B09D079
:10040400039B04339DF807200299184602F0ACFBC5
:1004140005900FE0039B1B781A46094B9B5C002B4D
:1004240008D1039B0C339DF807200299184601F06C
:10043400F3FB0590059B184607B05DF804FB00BF6D
:100444008400002000B587B00390029113468DF814
:10045400073000230593039B1B781A46114B9B5CC2
:10046400002B09D0039B04339DF8072002991846FA
:1004740002F052FC05900FE0039B1B781A46094BCF
:100484009B5C002B08D1039B0C339DF80720029939
:10049400184601F0A1FC0590059B184607B05DF8CD
:1004A40004FB00BF8400002000B583B001900091DC
:1004B400019B1B78012B16D10D4A0E4BD31ADB0876
:1004C4001B0443F003030C4A12780C49184604F049
:1004D400E7FB012208490A48FFF782FF0122064987
:1004E4000748FFF7AFFF00BF03B05DF804FB00BF90
:1004F400DC560000BC560000700000201C570000B1
:100504000857000030B58BB0164B6C461D460FCD16
:100514000FC495E80F0084E80F00134B06930023E3
:100524008DF814306B46114A1946114800F08AFBC5
:100534000990099B002B04D00E4A1921099802F056
:1005440059FE01220C490A48FFF77CFF0890089BDA
:10055400002B04D0074A1A21089802F04BFE00BF72
:100564000BB030BD7857000000E0D701AD040000A7
:10057400085700002C5700007000002008B5002127
:10058400002004F0B1F804F045F80C4A0C4BD31ADF
:10059400DB081B0443F003030A49184604F072FB0A
:1005A40004F0CCFB0346002BFAD1FFF7ABFF00BFEE
:1005B40004F0C4FB0346002BFAE700BFDC5600003E
:1005C400BC56000098570000BFF34F8F00BF064B86
:1005D400DB6803F4E0620449044B1343CB60BFF3CC
:1005E4004F8F00BF00BFFDE700ED00E00400FA05F7
:1005F40082B0164B1B680193154B1B680093019B3B
:10060400082B1FD1009B052B1AD801A252F823F006
:100614002D060000310600003506000039060000F2
:100624003D0600004106000001230CE001230AE01E
:10063400012308E0012306E0012304E0012302E092
:10064400012300E00023184602B070473001001077
:100654003401001082B0164B1B680193154B1B68C4
:100664000093019B082B1FD1009B052B1AD801A2D4
:1006740052F823F091060000950600009906000048
:100684009D060000A1060000A506000001230CE061
:1006940001230AE0012308E0012306E0012304E02A
:1006A400012302E0012300E00023184602B0704752
:1006B400300100103401001082B0164B1B68019306
:1006C400154B1B680093019B082B1FD1009B052B26
:1006D4001AD801A252F823F0F5060000F90600002A
:1006E400FD060000010700000507000009070000DF
:1006F40001230CE000230AE0002308E0002306E0C5
:10070400002304E0002302E0002300E00023184655
:1007140002B07047300100103401001082B0164B53
:100724001B680193154B1B680093019B082B1FD179
:10073400009B052B1AD801A252F823F05907000098
:100744005D070000610700006507000069070000FD
:100754006D07000001230CE000230AE0002308E0F9
:10076400002306E0002304E0002302E0002300E06D
:100774000023184602B07047300100103401001005
:1007840082B0164B1B680193154B1B680093019BA9
:10079400082B1FD1009B052B1AD801A252F823F075
:1007A400BD070000C1070000C5070000C90700001D
:1007B400CD070000D107000001230CE000230AE06C
:1007C400002308E0002306E0002304E0002302E005
:1007D400002300E00023184602B0704730010010E7
:1007E4003401001082B0164B1B680193154B1B6833
:1007F4000093019B082B1FD1009B052B1AD801A243
:1008040052F823F021080000250800002908000000
:100814002D080000310800003508000001230CE019
:1008240000230AE0002308E0002306E0002304E09C
:10083400002302E0002300E00023184602B07047C2
:10084400300100103401001082B0164B1B68019374
:10085400154B1B680093019B082B1FD1009B052B94
:100864001AD801A252F823F0850800008908000074
:100874008D08000091080000950800009908000008
:1008840001230CE001230AE0012308E0012306E030
:10089400012304E0012302E0012300E000231846C1
:1008A40002B07047300100103401001082B0164BC2
:1008B4001B680193154B1B680093019B082B1FD1E8
:1008C400009B052B1AD801A252F823F0E908000076
:1008D400ED080000F1080000F5080000F908000028
:1008E400FD08000000230CE000230AE0002308E0D8
:1008F400002306E0012304E0012302E0012300E0D9
:100904000023184602B07047300100103401001073
:1009140008B5FFF7CBFF0346002B07D04FF0102399
:100924004FF08042D3F80832C2F8583500BF08BDF2
:1009340000BF044BD3F80034002BFAD000BF00BF33
:10094400704700BF00E0014000B583B00190054A44
:10095400019BC2F80435FFF7EBFF00BF03B05DF85D
:1009640004FB00BF00E00140024B034A1A6000BFD1
:10097400704700BF000000200090D00308B5FFF7C7
:1009840037FE0346002B0ED04FF080430022C3F8FD
:100994000C214FF080430022C3F810214FF0804314
:1009A4000022C3F83825FFF755FE0346002B76D006
:1009B4004FF08053734AD3F80434C2F820354FF013
:1009C4008053704AD3F80834C2F824354FF080536A
:1009D4006C4AD3F80C34C2F828354FF08053694A76
:1009E400D3F81034C2F82C354FF08053654AD3F84D
:1009F4001434C2F830354FF08053624AD3F81834B7
:100A0400C2F834354FF080535E4AD3F81C34C2F830
:100A140040354FF080535B4AD3F82034C2F8443554
:100A24004FF08053574AD3F82434C2F848354FF076
:100A34008053544AD3F82834C2F84C354FF08053CD
:100A4400504AD3F82C34C2F850354FF080534D4AF5
:100A5400D3F83034C2F854354FF08053494AD3F8B0
:100A64003434C2F860354FF08053464AD3F83834F2
:100A7400C2F864354FF08053424AD3F83C34C2F88C
:100A840068354FF080533F4AD3F84034C2F86C3590
:100A94004FF080533B4AD3F84434C2F87035FFF723
:100AA4000BFE0346002B02D0374B384A1A60FFF77F
:100AB40035FE0346002B03D0354BFB22C3F8182523
:100AC400FFF75EFE0346002B0AD0324B1B6823F06F
:100AD4000F02314B1B6803F00F032E4913430B60C5
:100AE400FFF780FE0346002B03D02C4B4FF400721B
:100AF4001A60FFF7A9FE0346002B0DD04FF0804388
:100B0400D3F8003403F00103002B05D04FF08043E9
:100B14006FF00102C3F80024214BD3F88830204A37
:100B240043F47003C2F88830BFF34F8F00BFBFF3A4
:100B34006F8F00BFFFF7ECFE4FF01023D3F80032A5
:100B4400002B05DB4FF01023D3F80432002B15DA09
:100B54000120FFF7F9FE4FF010231222C3F8002200
:100B6400FFF7E6FE4FF010231222C3F80422FFF72A
:100B7400DFFE0020FFF7E8FEFFF726FDFFF7F4FE97
:100B840000BF08BD00C000408C56004048810300EF
:100B940000F00040E40E004058020010409602406D
:100BA40000ED00E000B589B001900091009B07932F
:100BB400019B1B788DF80C30019B5B680493019BAF
:100BC4009B68DBB28DF81430019BDB680693074AFF
:100BD400079B52F823300649079A51F8221003AABA
:100BE4001046984700BF09B05DF804FB740000206C
:100BF4007C00002000B589B001900091009B079310
:100C0400019B1B788DF80C30019B5B680493019B5E
:100C14009B68DBB28DF81430019BDB680693074AAE
:100C2400079B52F823300649079A51F8221003AA69
:100C34001046984700BF09B05DF804FB740000201B
:100C44007C00002030B58FB0039002910192039B89
:100C54001B780C932C490C9B019A41F82320029B8E
:100C64001A692A490C9B41F823200C9B012B07D1BC
:100C7400029B5B7F002B03D12549762002F0ADFB5C
:100C8400029B5B7F1946234A0C9B13440A461A7045
:100C9400029B04AC1D460FCD0FC495E80F0084E8F9
:100CA4000F000C9B089300230D93039B1B781A469B
:100CB400184B9B5C002B0DD0039B181D019B002B34
:100CC40001D0154A00E0002204AB194601F084FE6D
:100CD4000D9014E0039B1B781A460E4B9B5C002B73
:100CE4000DD1039B03F10C00019B002B01D00B4A97
:100CF40000E0002204AB194600F0ACFE0D900D9B01
:100D040018460FB030BD00BF740000207C000020E6
:100D1400B057000084000020A90B0000F90B00006C
:100D240008B5064B1B68002B03D10549512002F07E
:100D340054FB024B1B68984708BD00BF8800002085
:100D44000058000082B00190019B044A934201D1F3
:100D5400034B00E00023184602B070470020004017
:100D64008800002000B587B001900091019B002B02
:100D740003D11849772002F030FB0198FFF7E2FF16
:100D84000590059B002B1ED000238DF81330002006
:100D940002F0DCFA059B1B79002B03D001238DF8AC
:100DA400133005E0059B009A1A60059B01221A7115
:100DB400002002F0DFFA9DF81330002B03D011233A
:100DC4000393039B02E000230393039B184607B09D
:100DD4005DF804FB0058000000B585B00190019B4C
:100DE400002B03D10A499B2002F0F7FA0198FFF780
:100DF400A9FF0390039B002B05D0039B00221A60DC
:100E0400039B00221A7100BF05B05DF804FB00BF0C
:100E14000058000082B003468DF807309DF9073072
:100E2400002B0DDB9DF8073003F01F0206499DF9E6
:100E340007305B09012000FA02F2603341F82320F5
:100E440000BF02B0704700BF00E100E082B0019033
:100E5400019B1B0B5BB2184602B0704700B583B010
:100E640003468DF807309DF907301846FFF7D2FF87
:100E740000BF03B05DF804FB82B001900B468DF80F
:100E840003309DF80330019A134401221A6000BF15
:100E940002B0704784B001900B46ADF80230BDF843
:100EA4000230019A134400221A60BDF80230019AFC
:100EB40013441B680393039B00BF04B0704782B0C4
:100EC40001900B46ADF80230BDF80230019A13448C
:100ED4001B68002B14BF01230023DBB2184602B0A9
:100EE400704782B001900091019B009AC3F80423DB
:100EF40000BF02B0704782B001900091019B009A3C
:100F0400C3F8082300BF02B0704782B00190019B70
:100F14000622C3F8002500BF02B0704782B00190DA
:100F2400019B0022C3F8002500BF02B0704784B0C3
:100F34000190019BD3F8C4340393019B039AC3F833
:100F4400C424039B184604B0704782B001900091FA
:100F5400019B009AC3F8002200BF02B0704782B020
:100F64000190019BD3F84C35184602B0704782B00B
:100F74000190019BD3F80032184602B0704782B04A
:100F84000190019BD3F83C35184602B0704700002D
:100F940000B585B00190009101238DF80F30009BBE
:100FA4001B7B032B56D801A252F823F02910000012
:100FB4004110000001100000C10F0000009B9B685D
:100FC40003F48023002B07D00198FFF7C8FF0246E3
:100FD400009B1B699A420DD1009B9B6803F48023FC
:100FE400002B39D10198FFF7BAFF0246009B5B69D9
:100FF4009A4231D000238DF80F302DE00198FFF78D
:10100400AEFF0246009B1B699A4207D10198FFF785
:10101400B6FF0246009B5B699A421FD000238DF8FD
:101024000F301BE00198FFF79AFF0246009B1B69F3
:101034009A4215D000238DF80F3011E00198FFF784
:101044009EFF0246009B1B699A420BD000238DF839
:101054000F3007E000BF06E000BF04E000BF02E07D
:1010640000BF00E000BF9DF80F3083F00103DBB246
:10107400002B05D00198FFF751FF0198FFF745FFBA
:101084009DF80F30184605B05DF804FB30B58BB001
:1010940001900091009B1B68002B04D1A24940F2EF
:1010A400C12002F09AF94FF492710198FFF707FFFB
:1010B4000346002B3ED04FF492710198FFF7EAFEED
:1010C4004FF482710198FFF7FAFE034683F001039F
:1010D400DBB2002B2ED0009B9B6819460198FFF7CA
:1010E4000AFF009B02229A60009B9B6819460198A4
:1010F400FFF7F7FE4FF4B0710198FFF7E0FE0346E7
:1011040083F00103DBB2002B07D10198FFF72FFF17
:10111400034603F40073002B07D120210198FFF745
:10112400ABFE14210198FFF7A7FE009B012283F870
:101134002E20F6E04FF482710198FFF7C0FE0346BB
:10114400002B5DD04FF482710198FFF7A3FE009B42
:101154001B6A03F04003002B1AD1009B93F82E3036
:1011640083F00103DBB2002B12D000990198FFF742
:101174000FFF0346002B14BF01230023DBB283F0CF
:101184000103DBB203F00103DAB2009B83F82E20E3
:10119400009B1B6A03F00403002B79D1009B04AC71
:1011A40003F10C050FCD0FC42B6823604FF4B0710D
:1011B4000198FFF76FFE4FF4AE710198FFF76AFED6
:1011C400009B93F8303083F00103DBB2002B04D191
:1011D400009B93F82E30002B5AD000210198FFF782
:1011E400B4FE009B00229A6050490198FFF783FEE9
:1011F4000198FFF72BFE03461846FFF72FFE47E042
:101204004FF4A4710198FFF745FE009B1B7B002B54
:1012140022D1009B04AC03F10C050FCD0FC42B6845
:101224002360009B93F8303083F00103DBB2002B82
:101234002ED000210198FFF788FE009B00229A60BF
:101244003A490198FFF757FE0198FFF7FFFD03465F
:101254001846FFF703FE1BE04FF400710198FFF7F7
:1012640074FE009B40F202229A6030490198FFF715
:1012740042FE009B9B6819460198FFF732FE082145
:101284000198FFF7F9FD20210198FFF7F5FD48E0EB
:101294000198FFF74CFE0990099B03F00203002B11
:1012A40003D001238DF80C301DE0099B03F00403E7
:1012B400002B03D002238DF80C3014E0099B03F0BB
:1012C4000103002B03D003238DF80C300BE0009BAB
:1012D40093F82E30002B03D004238DF80C3002E059
:1012E40000238DF80C30009B93F8303083F0010319
:1012F400DBB2002B03D0009B002283F82F20009B3D
:101304001B6A03F00403002B04D0009B93F82E30D7
:10131400002B06D0009B1B68009A516803AA104654
:1013240098470BB030BD00BFB458000002029C01C6
:1013340008B503490348FFF7A9FE00BF08BD00BF75
:10134400900000200030004008B503494FF04020D1
:10135400FFF79CFE00BF08BDC400002082B0034616
:101364008DF807309DF90730002B0CDB9DF8073012
:1013740003F01F0205499DF907305B09012000FABB
:1013840002F241F8232000BF02B0704700E100E000
:1013940082B003468DF807309DF90730002B13DB2C
:1013A4009DF8073003F01F0209499DF907305B09D6
:1013B400012000FA02F2203341F82320BFF34F8FBB
:1013C40000BFBFF36F8F00BF00BF02B0704700BF04
:1013D40000E100E082B0034600918DF807309DF9EA
:1013E4000730002B0ADB009BDAB20C499DF9073069
:1013F4005201D2B20B4483F800230BE0009BDAB213
:1014040007499DF8073003F00F03043B5201D2B2A1
:101414000B441A7600BF02B0704700BF00E100E041
:1014240000ED00E082B00190019B1B0B5BB21846FB
:1014340002B0704700B583B003460A468DF8073002
:1014440013468DF806309DF80630072B03D908495A
:101454006B2001F0C2FF9DF806209DF9073011466C
:101464001846FFF7B7FF00BF03B05DF804FB00BFE9
:101474000059000000B583B003468DF807309DF98C
:1014840007301846FFF76AFF00BF03B05DF804FB9E
:1014940000B583B003468DF807309DF90730184630
:1014A400FFF776FF00BF03B05DF804FB84B0019042
:1014B4000B46ADF80230BDF80230019A1344002205
:1014C4001A60BDF80230019A13441B680393039B0E
:1014D40000BF04B0704782B001900B46ADF80230F3
:1014E400BDF80230019A13441B68002B14BF01237A
:1014F4000023DBB2184602B0704782B0019000911D
:10150400019B009AC3F8042300BF02B0704782B065
:1015140001900091019BD3F80423009B1340002BFE
:1015240014BF01230023DBB2184602B0704782B017
:1015340001900091019B009AC3F8082300BF02B0F8
:10154400704784B00190019BD3F880340393019BCE
:10155400039AC3F88024039B184604B0704782B0F2
:101564000190019B0422C3F8002500BF02B070471C
:1015740082B00190019B0022C3F8002500BF02B095
:10158400704784B0039002910192039B019AC3F8BF
:101594001425039B029AC3F80C2500BF04B07047BE
:1015A40000B583B001904FF0FF324FF0FF31019846
:1015B400FFF7E7FF00BF03B05DF804FB82B00190C2
:1015C400019BD3F80C35184602B0704782B00190E5
:1015D400019BD3F81435184602B0704782B00190CD
:1015E400019BD3F80835184602B0704782B00190C9
:1015F400019BD3F81035184602B0704784B00390AD
:1016040002910192039B029AC3F80825039B019A55
:10161400C3F8102500BF04B0704700B583B0019033
:101624004FF0FF324FF0FF310198FFF7E7FF00BFA3
:1016340003B05DF804FB82B00190019BD3F8183528
:10164400DBB2184602B0704782B001900B468DF8A9
:1016540003309DF80320019BC3F81C2500BF02B092
:10166400704782B001900B468DF803309DF803302B
:10167400019A134401221A6000BF02B0704782B07D
:1016840001900B468DF8033013468DF802309DF817
:1016940003209DF802301343DBB21A46019BC3F8C2
:1016A4006C2500BF02B0704782B001900091019B8D
:1016B400009AC3F8242500BF02B0704700B583B078
:1016C4000190019B1B68184600F0A4F80346002B08
:1016D40004D10B494FF4F67001F07FFE019B1B68A7
:1016E4001F2B02D84FF0A04306E0019B1B6803F0B8
:1016F4001F02019B1A60034B184603B05DF804FBFC
:10170400305900000003005000B585B00190084630
:1017140011461A4603468DF803300B468DF8023005
:1017240013468DF8013001AB1846FFF7C7FF03904D
:101734009DF803209DF802305B001A439DF80130A8
:101744009B001A439DF818301B0242EA03019DF8DE
:101754001C301B04019A1943039B02F5E07243F801
:10176400221000BF05B05DF804FB00B585B00390FE
:1017740000230193002300930023012201210398F5
:10178400FFF7C2FF00BF05B05DF804FB00B585B0EC
:1017940003900B468DF80B309DF80B30002201921C
:1017A40000220092002200210398FFF7ADFF00BF42
:1017B40005B05DF804FB00B585B0039000230193E8
:1017C400002300930023012200210398FFF79CFFCC
:1017D40000BF05B05DF804FB00B585B0019001AB16
:1017E4001846FFF76BFF0390019B012202FA03F3F3
:1017F4001946039800F004F800BF05B05DF804FB37
:1018040082B001900091019B009AC3F8082500BFA3
:1018140002B0704784B00190019B5B0902930023DE
:101824000393029B002B03D0029B012B04D007E0FF
:101834004FF0FF33039303E04FF6FF73039300BFAE
:10184400019B03F01F030193039A019B22FA03F304
:1018540003F00103002B14BF01230023DBB218465D
:1018640004B0704700B583B001900091009B1B68E1
:10187400B3F1FF3F09D0009B1B681846FFF7ACFF8C
:10188400009B1B681846FFF770FF009B5B68B3F171
:10189400FF3F05D0009B5B6800211846FFF776FFE9
:1018A400019B1A68009B9B6919461046FFF7FCFED2
:1018B400019B1868009B597D009B1B7D1A46FFF70E
:1018C400DEFE019B1868009B1968009B5B681A4642
:1018D400FFF757FE009B1B7D012B22D1009B9B68C9
:1018E400B3F1FF3F05D0009B9B6800211846FFF72A
:1018F4004DFF009BDB68B3F1FF3F09D0009BDB6821
:101904001846FFF769FF009BDB681846FFF72DFFB9
:10191400019B1868009BD968009B9B681A46FFF7D7
:101924006DFE00BF03B05DF804FB000000B583B09A
:1019340001900B468DF80330019B1B684FF48E71A8
:101944001846FFF7B3FD019B1B684FF4A2711846BC
:10195400FFF7ACFD019B1B680E491846FFF7CDFD50
:10196400019B1B681846FFF75DFD03461A469DF868
:10197400033019461046FFF75DFD019B1B681846AE
:10198400FFF750FD03461846FFF774FD00BF03B090
:101994005DF804FB8000020000B583B00190019B58
:1019A4001B6808491846FFF7C2FD019B1B681846CF
:1019B400FFF738FD03461846FFF76AFD00BF03B082
:1019C4005DF804FB8402020000B587B00190019B1E
:1019D4001B681846FFF7F2FD0590019B1B6818462B
:1019E400FFF7F4FD0490019B1B681846FFF7F6FD12
:1019F4000390019B1B681846FFF7F8FD0290019BBA
:101A04001B681846FFF7CCFD019B1B681846FFF7BF
:101A140004FE059BB3F1FF3F02D00598FFF7CBFE10
:101A2400049BB3F1FF3F02D00498FFF7C4FE029B6E
:101A3400B3F1FF3F02D00298FFF7BDFE039BB3F161
:101A4400FF3F02D00398FFF7B6FE00BF07B05DF872
:101A540004FB000000B587B0039002910192029B41
:101A6400002B03D12D49AA2001F0B7FC039B1B795D
:101A74001A462C2302FB03F3294A1344049300233C
:101A84000593049B93F82A30002B03D00823059375
:101A9400059B3EE0039B1A68039B1B791946214B67
:101AA40053F8213019461046FFF75CF90346002B22
:101AB40003D011230593059B2BE002990398FFF7AC
:101AC400D1FE049B019A5A60029B1A69049B1A6016
:101AD400049B5B68002B05D0029B1B7F194603986F
:101AE400FFF724FF039B1B681846FFF738FD049B90
:101AF40000229A61049B0022DA61049B002283F88D
:101B04002920049B00225A61049B012283F82A2085
:101B1400059B184607B05DF804FB00BF6859000038
:101B2400F8000020B459000000B585B00190019B75
:101B34001B791A462C2302FB03F3114A1344039323
:101B4400019B1B681846FFF713FD039B5B68002B82
:101B540002D00198FFF720FF0198FFF735FF019BA2
:101B64001B681846FFF738F9039B002283F82A20E4
:101B7400039B00225A6000BF05B05DF804FB00BF60
:101B8400F800002000B585B0019000914FF48E71EB
:101B94000198FFF78BFC009B9A68009B1B6A134417
:101BA4001B788DF80F30009B1B6A5A1C009B1A622D
:101BB4009DF80F3019460198FFF746FD00BF05B0A8
:101BC4005DF804FB00B585B001900091009B5B6952
:101BD400039316E0009B93F82830DBB2002B01D06E
:101BE400002314E04FF48E710198FFF774FC034650
:101BF40083F00103DBB2002BECD100990198FFF7CD
:101C0400C1FF009B1B6A039A9A42EBD80123184632
:101C140005B05DF804FB000000B587B003900291A5
:101C24000192039B1B791A462C2302FB03F33C4AC3
:101C340013440493049B93F82A30012B04D03949AC
:101C44004FF48C7001F0C9FB029B002B04D1354981
:101C540040F2191001F0C1FB019B002B04D1314962
:101C64004FF48D7001F0B9FB039800F05DF8034662
:101C7400002B03D011230593059B4CE0049B019A90
:101C84005A61049B029A9A60049B00221A62049B84
:101C9400002283F8282000230593039B1B684FF43C
:101CA4008E711846FFF702FC039B1B680821184637
:101CB400FFF7D7FC039B1B6804991846FFF762FFE4
:101CC400049B5B68002B25D1039B1B680499184671
:101CD400FFF778FF034683F00103DBB2002B02D049
:101CE4000F23059313E000BF039B1B684FF48E7111
:101CF4001846FFF7F0FB034683F00103DBB2002B29
:101D0400F2D1039B1B680C211846FFF7AAFC049B25
:101D140000225A61059B184607B05DF804FB00BF1A
:101D2400F80000206859000082B00190019B1B79E3
:101D34001946074A2C2301FB03F3134414331B688D
:101D4400002B14BF01230023DBB2184602B07047F6
:101D5400F800002000B583B00190019B1B684FF48C
:101D640092711846FFF7A2FB019B1B684FF4847124
:101D74001846FFF79BFB019B1B6800211846FFF7E1
:101D840070FC00BF03B05DF804FB10B582B0019095
:101D94000091009B9B69002B08D14FF4847101983A
:101DA400FFF784FB0198FFF746FC13E04FF48471BE
:101DB4000198FFF77BFB009BDA68009B5B6AD418F1
:101DC4000198FFF738FC03462370009B5B6A5A1C9A
:101DD400009B5A6202B010BD00B589B00390029115
:101DE4000192039B1B791A462C2302FB03F37F4ABF
:101DF40013440593039B1B7919467C4A2C2301FB4E
:101E040003F313442A331B78012B04D078494FF48D
:101E1400B67001F0E2FA029B002B04D1744940F23F
:101E24006D1001F0DAFA019B002B04D170494FF4D4
:101E3400B77001F0D2FA00238DF81C30059B5B6863
:101E4400002B06D0039B1B684FF401711846FFF763
:101E54006EFB059B9B69002B15D0059BDB69002B52
:101E64000ED0059B5B68002B06D0039B1B684FF4C8
:101E740001711846FFF741FB11230693069BB0E05E
:101E840001238DF81C309DF81C3083F00103DBB274
:101E9400002B0CD0059B019A9A61059B029ADA608B
:101EA400059B00225A62059B0022DA6105E0059B2E
:101EB400029A1A61059B019ADA61059B93F829300D
:101EC40083F00103DBB2002B09D09DF81C3083F0B2
:101ED4000103DBB2002B02D00398FFF73BFF059B05
:101EE4005B68002B73D1039B1B684FF4A2711846E7
:101EF400FFF7DCFA039B1B684FF492711846FFF757
:101F0400EAFA03468DF81F30039B1B684FF4847173
:101F14001846FFF7E0FA03468DF81E30039B1B6852
:101F24004FF4A2711846FFF7D6FA03468DF81D3018
:101F34009DF81E3083F00103DBB2002B0DD09DF819
:101F44001D3083F00103DBB2002B06D09DF81F3057
:101F540083F00103DBB2002BCCD19DF81F30002BA2
:101F64000FD19DF81D30002B0BD1039B1B680599E5
:101F74001846FFF70AFF059B9A69059B5B6A9A421C
:101F8400B8D8059B00229A619DF81F30002B03D01E
:101F940003230693069B24E09DF81D30002B03D0F9
:101FA4000F230693069B1CE0059B93F82930002B16
:101FB40006D0039B1B6800211846FFF752FB0DE077
:101FC400039B1B6804211846FFF74BFB06E0039BA9
:101FD4001B684FF401711846FFF78FFA002306932C
:101FE400069B184609B05DF804FB00BFF80000200A
:101FF4006859000000B589B0039002910192012351
:102004008DF81030029B0693019B0593039B5B683C
:10201400039A116804AA1046984700BF09B05DF8F6
:1020240004FB00B587B00190009100238DF80830BF
:10203400009B0493019B9B680393019B00225A61BC
:10204400019B5B68019A116802AA1046984700BF79
:1020540007B05DF804FB00B58BB0019000914FF41C
:1020640000710198FFF753FA0346002B39D04FF45F
:1020740092710198FFF72FFA0346002B31D04FF4E9
:1020840092710198FFF712FA4FF401710198FFF76A
:102094004EFA009B93F8293083F00103DBB2002B46
:1020A40003D004210198FFF7DCFA02238DF80C30E9
:1020B4000198FFF746FA03460693009B9B69059334
:1020C400009BDB680493009B00229A61009B002222
:1020D400DA61009B5B68009A116803AA104698476E
:1020E40052E004210198FFF712FA0346002B4BD06B
:1020F4004FF484710198FFF7EEF90346002B43D0A7
:1021040000990198FFF741FE009B9A69009B5B6A66
:102114009A4239D1009BDB69002B19D0009BDB6804
:102124000993009B5B6A0893009BDA69009B9A61A0
:10213400009B1A69009BDA60009B0022DA61009B15
:1021440000225A62099A08990098FFF753FF1BE08E
:10215400009B93F8293083F00103DBB2002B03D0FA
:1021640004210198FFF77DFA4FF401710198FFF7FC
:10217400DEF9009B00229A61009B596A009BDB6890
:102184001A460098FFF736FF4FF48E710198FFF757
:10219400A2F90346002B24D0009B5B690793009BA4
:1021A4001B6A079A9A420DD9009B93F82830DBB238
:1021B40083F00103DBB2002B04D000990198FFF7F0
:1021C400E1FC0EE04FF48E710198FFF76FF9009B6C
:1021D4005B69002B05D0009B5B6919460098FFF7EB
:1021E40020FF4FF4A2710198FFF775F90346002B05
:1021F4001CD04FF4A2710198FFF758F9009B93F893
:102204002930002B03D000210198FFF72AFA009B04
:102214009B69002B0AD0009B00229A61009B596A9B
:10222400009BDB681A460098FFF7E4FE00BF0BB082
:102234005DF804FB08B503490348FFF70CFF00BF32
:1022440008BD00BFF80000200020004082B0034613
:102254008DF807309DF90730002B0CDB9DF8073013
:1022640003F01F0205499DF907305B09012000FABC
:1022740002F241F8232000BF02B0704700E100E001
:1022840082B003468DF807309DF90730002B13DB2D
:102294009DF8073003F01F0209499DF907305B09D7
:1022A400012000FA02F2203341F82320BFF34F8FBC
:1022B40000BFBFF36F8F00BF00BF02B0704700BF05
:1022C40000E100E082B0034600918DF807309DF9EB
:1022D4000730002B0ADB009BDAB20C499DF907306A
:1022E4005201D2B20B4483F800230BE0009BDAB214
:1022F40007499DF8073003F00F03043B5201D2B2A3
:102304000B441A7600BF02B0704700BF00E100E042
:1023140000ED00E082B00190019B03F06043B3F153
:10232400005F0CBF01230023DBB2184602B07047E4
:1023340082B00190019B1B0B5BB2184602B0704740
:1023440000B583B003460A468DF8073013468DF86E
:1023540006309DF80630072B03D908496B2001F09D
:102364003CF89DF806209DF9073011461846FFF702
:10237400A9FF00BF03B05DF804FB00BFB85900001B
:1023840000B583B003468DF807309DF90730184631
:10239400FFF75CFF00BF03B05DF804FB00B583B03A
:1023A40003468DF807309DF907301846FFF768FF9C
:1023B40000BF03B05DF804FB84B001900B46ADF898
:1023C4000230BDF80230019A134400221A60BDF8AD
:1023D4000230019A13441B680393039B00BF04B0AB
:1023E400704782B001900B46ADF80230BDF8023060
:1023F400019A13441B68002B14BF01230023DBB292
:10240400184602B0704782B001900091019BD3F846
:102414000022009B1A43019BC3F8002200BF02B0B4
:10242400704782B001900091019BD3F80022009B79
:10243400DB431A40019BC3F8002200BF02B070477F
:1024440082B001900091019B009AC3F8042300BF5D
:1024540002B0704782B001900091019B009AC3F8CA
:10246400082300BF02B0704784B00190019BD3F8E9
:1024740080340393019B039AC3F88024039B18467A
:1024840004B0704782B00190019B0822C3F8002574
:1024940000BF02B0704782B00190019B0022C3F8D4
:1024A400002500BF02B0704784B0039002910192EE
:1024B400039B029AC3F80C25039B019AC3F81425C5
:1024C40000BF04B0704700B583B001904FF0FF32F5
:1024D4004FF0FF310198FFF7E7FF00BF03B05DF84D
:1024E40004FB82B00190019BD3F80C35184602B06E
:1024F400704782B00190019BD3F81435184602B09E
:10250400704782B00190019BD3F80835184602B099
:10251400704782B00190019BD3F81035184602B081
:10252400704784B0039002910192039B029AC3F80E
:102534000825039B019AC3F8102500BF04B0704717
:1025440000B583B001904FF0FF324FF0FF31019896
:10255400FFF7E7FF00BF03B05DF804FB82B0019012
:102564000B468DF803309DF80330019A1344012281
:102574001A6000BF02B0704782B001900B468DF81C
:10258400033013468DF802309DF803209DF8023085
:102594001343DBB21A46019BC3F86C2500BF02B09B
:1025A400704782B001900091019B009AC3F82425E2
:1025B40000BF02B0704784B0039002910192029A66
:1025C400039BC3F84425039B019AC3F8482500BF25
:1025D40004B0704782B00190019BD3F84C35184683
:1025E40002B0704784B0039002910192029A039B57
:1025F400C3F83425039B019AC3F8382500BF04B0FF
:10260400704782B00190019BD3F83C35184602B064
:102614007047000000B583B00190019B1B68184609
:1026240000F0A4F80346002B04D10B494FF4F670D4
:1026340000F0D3FE019B1B681F2B02D84FF0A04370
:1026440006E0019B1B6803F01F02019B1A60034B09
:10265400184603B05DF804FBE8590000000300507D
:1026640000B585B00190084611461A4603468DF818
:1026740003300B468DF8023013468DF8013001AB60
:102684001846FFF7C7FF03909DF803209DF802301A
:102694005B001A439DF801309B001A439DF81830E3
:1026A4001B0242EA03019DF81C301B04019A1943E2
:1026B400039B02F5E07243F8221000BF05B05DF8F9
:1026C40004FB00B585B0039000230193002300931D
:1026D4000023012201210398FFF7C2FF00BF05B0C8
:1026E4005DF804FB00B585B003900B468DF80B3004
:1026F4009DF80B300022019200220092002200215A
:102704000398FFF7ADFF00BF05B05DF804FB00B50B
:1027140085B003900023019300230093002301223A
:1027240000210398FFF79CFF00BF05B05DF804FB90
:1027340000B585B0019001AB1846FFF76BFF03901D
:10274400019B012202FA03F31946039800F004F8EE
:1027540000BF05B05DF804FB82B001900091019BBD
:10276400009AC3F8082500BF02B0704784B00190F6
:10277400019B5B09029300230393029B002B03D06C
:10278400029B012B04D007E04FF0FF33039303E0D7
:102794004FF6FF73039300BF019B03F01F030193E4
:1027A400039A019B22FA03F303F00103002B14BFE5
:1027B40001230023DBB2184604B0704700B583B090
:1027C40001900091009B1B68B3F1FF3F09D0009B6F
:1027D4001B681846FFF7ACFF009B1B681846FFF701
:1027E40070FF009B5B68B3F1FF3F05D0009B5B6803
:1027F40000211846FFF776FF019B1A68009B9B692E
:1028040019461046FFF7CDFE019B1868009B597DC1
:10281400009B1B7D1A46FFF7AFFE019B1868009BC7
:102824001968009B5B681A46FFF73EFE009B1B7D00
:10283400012B22D1009B9B68B3F1FF3F05D0009B85
:102844009B6800211846FFF74DFF009BDB68B3F13E
:10285400FF3F09D0009BDB681846FFF769FF009B28
:10286400DB681846FFF72DFF019B1868009BD968A9
:10287400009B9B681A46FFF754FE00BF03B05DF847
:1028840004FB000000B583B001900B468DF80330C3
:10289400019B1B684FF488711846FFF78DFD019B5F
:1028A4001B684FF490711846FFF786FD019B1B6867
:1028B4004FF492711846FFF77FFD019B1B684FF49C
:1028C400A2711846FFF778FD019B1B684FF4AC71A9
:1028D4001846FFF771FD019B1B680F491846FFF767
:1028E400AFFD019B1B681846FFF722FD03461A46FD
:1028F4009DF8033019461046FFF722FD019B1B6823
:102904001846FFF715FD03461846FFF739FD00BFCB
:1029140003B05DF804FB00BF1003420000B583B0B0
:102924000190019B1B6808491846FFF793FD019B22
:102934001B681846FFF7FCFC03461846FFF72EFDFC
:1029440000BF03B05DF804FB1003420000B587B07C
:102954000190019B1B681846FFF7C3FD0590019B7E
:102964001B681846FFF7C5FD0490019B1B681846B9
:10297400FFF7C7FD0390019B1B681846FFF7C9FDCD
:102984000290019B1B681846FFF79DFD019B1B6885
:102994001846FFF7D5FD059BB3F1FF3F02D005981C
:1029A400FFF7B5FE049BB3F1FF3F02D00498FFF795
:1029B400AEFE029BB3F1FF3F02D00298FFF7A7FEE1
:1029C400039BB3F1FF3F02D00398FFF7A0FE00BFC3
:1029D40007B05DF804FB000000B587B003900291D6
:1029E4000192029B002B03D12B49CF2000F0F5FC70
:1029F400039B1B791A461346DB0013449B00274AAA
:102A04001344049300230593049B93F82030002B74
:102A140003D008230593059B3AE0039B1A68039BA4
:102A24001B7919461E4B53F8213019461046FEF700
:102A340099F90346002B03D011230593059B27E046
:102A440002990398FFF7BAFE049B019A5A60029B0D
:102A54001A69049B1A60049B5B68002B05D0029BD7
:102A64001B7F19460398FFF70DFF039B1B6818464D
:102A7400FFF708FD049B00229A61049B0022DA619F
:102A8400049B00225A61049B012283F82020059BA9
:102A9400184607B05DF804FB205A0000240100200A
:102AA4006C5A000000B585B00190019B1B791A4651
:102AB4001346DB0013449B002A4A13440393019BEF
:102AC4001B680293039B5B68002B02D00198FFF7FD
:102AD40025FF20210298FFF7A4FC039B9B69002B90
:102AE40008D04FF4A2710298FFF766FC0421029803
:102AF400FFF734FD4FF4AC710298FFF75DFC0C2135
:102B04000298FFF72BFD00BF4FF4AC710298FFF75A
:102B140068FC034683F00103DBB2002BF4D1039B72
:102B24009B69002B0AD04FF4A2710298FFF759FC5D
:102B3400034683F00103DBB2002BE5D10298FFF7D3
:102B4400AAFC0198FFF702FF0298FEF745F9039BE0
:102B5400002283F82020039B00225A6000BF05B0A6
:102B64005DF804FB2401002000B589B003900291B4
:102B74000192039B1B791A461346DB0013449B0006
:102B8400574A13440593059B93F82030012B04D036
:102B9400544940F2531000F020FC029B002B04D156
:102BA40050494FF4AA7000F018FC019B002B04D18B
:102BB4004C4940F2551000F010FC039B1B79002B8C
:102BC40003D1019BB3F5803F04D346494FF4AB7066
:102BD40000F003FC0298FFF79DFB034683F001031A
:102BE400DBB2002B03D010230793079B73E00398F9
:102BF40000F07AF80346002B03D011230793079BB8
:102C040069E0059B019A5A61059B029A9A60002328
:102C14000793039B1B684FF490711846FFF7CCFB96
:102C2400039B1B684FF4AC711846FFF7C5FB039B6D
:102C34001868059B9968059B5B691A46FFF7BBFCFE
:102C4400039B1B6808211846FFF788FC059B5B68FB
:102C5400002B3FD1039B1B684FF490711846FFF77C
:102C6400C0FB03468DF81B30039B1B684FF4AC710B
:102C74001846FFF7B6FB03468DF81A309DF81B3053
:102C840083F00103DBB2002B06D09DF81A3083F0E9
:102C94000103DBB2002BDDD19DF81A30002B02D0EA
:102CA4000F23079313E0039B1B680C211846FFF7BF
:102CB40055FC00BF039B1B684FF4AC711846FFF72B
:102CC40090FB034683F00103DBB2002BF2D1059B9A
:102CD40000225A61079B184609B05DF804FB00BF47
:102CE40024010020205A000082B00190019B1B792E
:102CF4001946084A0B46DB000B449B00134414336B
:102D04001B68002B14BF01230023DBB2184602B05A
:102D1400704700BF2401002000B589B003900291E0
:102D24000192039B1B791A461346DB0013449B0054
:102D3400864A13440593039B1B791946834A0B4621
:102D4400DB000B449B00134420331B78012B04D07D
:102D54007F494FF4D37000F040FB029B002B04D159
:102D64007B4940F2A71000F038FB019B002B04D1F3
:102D740077494FF4D47000F030FB039B1B79002B90
:102D840003D1019BB3F5803F04D3714940F2A910EC
:102D940000F023FB0298FFF7BDFA034683F001031A
:102DA400DBB2002B03D010230693069BCAE000235A
:102DB4008DF81F30059B5B68002B06D0039B1B68B6
:102DC4004FF404711846FFF745FB059B9B69002BE4
:102DD40015D0059BDB69002B0ED0059B5B68002B8F
:102DE40006D0039B1B684FF404711846FFF728FBB9
:102DF40011230693069BA5E001238DF81F309DF84F
:102E04001F3083F00103DBB2002B09D0059B019A2C
:102E14009A61059B029ADA60059B0022DA6105E05B
:102E2400059B029A1A61059B019ADA6100230693B5
:102E3400039B1B684FF488711846FFF7BDFA039B88
:102E44001B684FF4A2711846FFF7B6FA039B1B6880
:102E5400019A02991846FFF7C5FB9DF81F3083F0CD
:102E64000103DBB2002B06D0039B1B68002118462C
:102E7400FFF774FB05E0039B1B6820211846FFF74E
:102E8400C2FA039B1B791946304A0B46DB000B44FC
:102E94009B00134404331B68002B4BD1039B1B681A
:102EA4004FF488711846FFF79CFA03468DF81330E7
:102EB400039B1B684FF4A2711846FFF792FA03466E
:102EC4008DF81230039B1B684FF492711846FFF77C
:102ED40088FA03468DF811309DF8133083F001030E
:102EE400DBB2002B0DD09DF8123083F00103DBB26E
:102EF400002B06D09DF8113083F00103DBB2002BC8
:102F0400CCD1039B1B791946104A0B46DB000B44BA
:102F14009B001344183300221A609DF81130002BD3
:102F240001D0032306939DF81230002B09D00F2300
:102F3400069306E0039B1B684FF404711846FFF7E1
:102F44007FFA069B184609B05DF804FB24010020B3
:102F5400205A000000B589B0039002910192012328
:102F64008DF81030029B0693019B0593039B5B68CD
:102F7400039A116804AA1046984700BF09B05DF887
:102F840004FB00B587B00190009100238DF8083050
:102F9400009B0493019B9B680393019B00225A614D
:102FA400019B5B68019A116802AA1046984700BF0A
:102FB40007B05DF804FB00B589B0019000914FF4AF
:102FC40092710198FFF70DFA0346002B22D04FF4BB
:102FD40092710198FFF7F0F902238DF808300198F7
:102FE400FFF742FA034605930198FFF70AFB0346ED
:102FF4000493009BDB680393009B00229A61009B6F
:103004000022DA61009B5B68009A116802AA1046EC
:1030140098473BE04FF488710198FFF7E2F90346C3
:10302400002B33D04FF488710198FFF7C5F901984C
:10303400FFF7E7FA0790009B9B69079A9A4225D10C
:10304400009BDB69002B17D0009BDB6806932021D3
:103054000198FFF7E6F9009BDA69009B9A61009BEF
:103064001A69009BDA60009B0022DA61069A0799CC
:103074000098FFF76FFF09E0009B00229A61009B14
:10308400DB681A4607990098FFF764FF4FF4A271B2
:103094000198FFF7A6F90346002B18D04FF4A2714C
:1030A4000198FFF789F9009B9B69002B0FD0009BC7
:1030B40000229A61009B0022DA610198FFF7A1FACD
:1030C4000146009BDB681A460098FFF743FF4FF464
:1030D40090710198FFF785F90346002B14D04FF443
:1030E40090710198FFF768F90C210198FFF736FAFF
:1030F400009B5B69002B07D00198FFF76BFA03462E
:1031040019460098FFF73DFF4FF4AC710198FFF7A3
:1031140068F90346002B10D04FF4AC710198FFF707
:103124004BF9009B5B69002B07D00198FFF752FA1B
:10313400034619460098FFF724FF00BF09B05DF865
:1031440004FB000008B503490348FFF734FF00BF40
:1031540008BD00BF240100200020004086B0039079
:103164000291019201238DF817309DF81730204AFF
:10317400039B13601E4A029B53601D4A019B93608C
:10318400039B44F20102934212D0039B44F20202D5
:10319400934220D1019B164AD360154BDB681B6810
:1031A400134A9361124BDB685B68114AD36112E0E6
:1031B400019B0F4A13610E4B1B699B680C4A5361B8
:1031C4000B4B1B691B680A4A9361094B1B695B68BB
:1031D400074AD36100BF72B600BF00BF9DF8173025
:1031E400DBB2002BFAD162B600BF00BF06B0704755
:1031F4004801002000B583B002900091019244F28E
:10320400010071466A4600F003F803B000BD00BF38
:1032140030B58BB007900691059272B600BF01F0ED
:10322400C9FF01F08BFD0346002BFAD1079B44F242
:103234000102934216D0079B44F2020293423ED10C
:10324400059B09932C4A2D4BD31ADB081B0443F02E
:103254000100099B5B681A46099B1B68284901F019
:1032640030FD39E0059B0893234A244BD31ADB082D
:103274001B0443F00104089B9D68089B9B68184647
:1032840000F0D2FF03461846089B5B681946089B6A
:103294001B68069A02920193009103462A46194933
:1032A400204601F022FD144A144BD31ADB081B04F8
:1032B40043F001031449184601F0E4FC0CE00E4A03
:1032C4000E4BD31ADB081B0443F00103069A0F4983
:1032D400184601F0E5FC00BF0D4B1B6803F0010329
:1032E400002B00D000BE059A06990798FFF736FF19
:1032F40000BF0BB030BD00BFDC560000BC56000060
:10330400705A00008C5A0000B45A0000C85A0000D9
:10331400F0ED00E072B600BF034B1B680133024AB4
:10332400136000BF704700BF68010020064B1B6894
:10333400013B054A1360044B1B68002B01D162B6A4
:1033440000BF00BF704700BF6801002000B583B014
:10335400019000F025F80346012B03D004494320D3
:1033640000F03BF8FFF7D6FF00BF03B05DF804FBA5
:10337400E05A000000B583B003468DF8073000F032
:103384000FF80346012B03D00449512000F025F81F
:10339400FFF7CCFF00BF03B05DF804FBE05A000068
:1033A40084B0EFF305830193019BC3F308030393F4
:1033B400039B002B0DD1EFF314830093009B029326
:1033C400029B03F00103002B0CBF01230023DBB29B
:1033D40000E00123184604B0704700B585B00346E9
:1033E4000091ADF80630BDF806300293009B0393BC
:1033F40002AB1A46002144F20200FFF709FF00BFA6
:1034040005B05DF804FB10B487B001900091019BF6
:10341400009A53E8004F104643E8000191F0000F72
:10342400F7D1059404900391059B184607B05DF805
:10343400044B704710B487B001900091019B009A2F
:1034440053E8004F44EA020043E8000191F0000F02
:10345400F6D1059404900391049B184607B05DF8D7
:10346400044B704710B487B001900091019B009AFF
:1034740053E8004F04EA020043E8000191F0000F12
:10348400F6D1059404900391059B184607B05DF8A6
:10349400044B704710B487B001900091019B009ACF
:1034A40053E8004F04EB020043E8000191F0000FE1
:1034B400F6D1059404900391049B184607B05DF877
:1034C400044B704710B487B001900091019B009A9F
:1034D40053E8004FA4EB020043E8000191F0000F11
:1034E400F6D1059404900391049B184607B05DF847
:1034F400044B704700B583B0019001210198FFF798
:1035040099FF0346184603B05DF804FB00B583B089
:10351400019000210198FFF7A5FF0346184603B068
:103524005DF804FB00B583B001900B468DF80330C1
:10353400019B002B03D10849E820FFF74EFF019BB4
:10354400DA689DF803300199098A01FB03F31344F7
:10355400184603B05DF804FB345B000000B583B08B
:1035640001900091019B002B03D10849F520FFF73E
:1035740034FF009B019AD2689B1A019A128AB3FB0A
:10358400F2F3DBB2184603B05DF804FB345B0000D1
:1035940000B585B00190019B002B01D10E234CE0B6
:1035A400019B1B68002B03D12649FF20FFF715FF61
:1035B400019B5B68002B04D122494FF48070FFF714
:1035C4000CFF019B9B68002B04D11E4940F20110A3
:1035D400FFF703FF019BDB68002B04D119494FF46B
:1035E4008170FFF7FAFE019B1B8A002B04D1154959
:1035F40040F20310FFF7F1FE019B9A68019B5B68A0
:10360400D31A8DF80F30019B1B68019A52681A6017
:1036140007E0019B1A681368591C11609DF80F207C
:103624001A709DF80F305A1E8DF80F20002BF0D120
:10363400019B1B6800221A710023184605B05DF82F
:1036440004FB00BF345B000000B585B00190019B12
:10365400002B04D11C494FF49270FFF7BEFE0023E7
:1036640003930020FFF772FE019B1B681A68019BFD
:103674005B689A421FD9019B1B681A68013A1A6059
:103684001B681B7819460198FFF74CFF0390019BB8
:103694009A68019B1B681B68D31A8DF80B30019B39
:1036A4001B681B799DF80B209A4204D9019B1B6867
:1036B4009DF80B201A710020FFF75CFE039B18464F
:1036C40005B05DF804FB00BF345B000010B584B0A6
:1036D40001900091019B002B04D1114940F2471045
:1036E400FFF77BFE009B002B04D10D494FF4A4701F
:1036F400FFF773FE009B03930020FFF727FE019B57
:103704001B681C68621C1A6003990198FFF726FF66
:10371400034623700020FFF72DFE00BF04B010BD48
:10372400345B000000B583B00190019B002B03D1F2
:103734000C493120FFF751FE019B9B68002B0CD0F4
:10374400019B5B69019A1069019A1168019A926858
:103754009847019B00229A6000E000BF03B05DF827
:1037640004FB00BF845B00000EB400B584B001907C
:10377400019B002B03D118494220FFF72EFE019B29
:103784005B69002B03D114494320FFF726FE019BFC
:103794001B68002B03D110494420FFF71EFE019B38
:1037A4005B68002B03D10C494520FFF716FE059BEF
:1037B400002B0AD00023039306AB039303AB1A46F2
:1037C4000599019800F0B8F900E000BF04B05DF875
:1037D40004EB03B0704700BF845B000000B583B006
:1037E40001900B468DF803309DF803300A2B03D16A
:1037F4000D210198FFF7F2FF019B1A68019B9B685A
:10380400581C0199886013449DF803201A70019B89
:103814009A68019B5B689A4202D30198FFF782FF82
:1038240000BF03B05DF804FB00B587B003900291BC
:103834000192009300230593009B03F00103002BE6
:1038440024D00BE0029B01330293059B01330593C3
:103854009DF8133019460398FFF7C0FF029B1B78AD
:103864008DF813309DF81330002BEBD106E0019B4B
:10387400013B019320210398FFF7B0FF019A059BB8
:103884009A422ED9019B002BF1D12AE0029B002BF6
:103894000BD0029801F060FE059006E0019B013B0D
:1038A400019320210398FFF799FF019A059B9A42FF
:1038B4000FD9019B002BF1D10BE0029B0133029342
:1038C400059B013305939DF8133019460398FFF7C0
:1038D40085FF029B1B788DF813309DF81330002B65
:1038E400EBD100BF07B05DF804FB000000B589B060
:1038F4000390029101920093029B07930123069384
:1039040007E0079A019BB2FBF3F30793069B01338D
:103914000693079A019B9A42F3D2009A069B9A4215
:1039240001D9009B06930B9B03F00103002B22D1CA
:103934000A9B002B1FD00B9B03F00203002B06D025
:10394400009B002B03D130238DF8173002E0202395
:103954008DF8173008E00A9B013B0A939DF8173055
:1039640019460398FFF73AFF0A9B002B03D0069AE7
:103974000A9B9A42EFD301230793009B012B03D99F
:10398400009B013B009309E0029A079BB2FBF3F30F
:103994000493049A019B9A4200D205E0079B019A82
:1039A40002FB03F30793E8E7029A079BB2FBF3F3E6
:1039B4000493049B079A02FB03F3029AD31A02931B
:1039C400154A049B13441B7819460398FFF706FF16
:1039D400079A019BB2FBF3F30793079B002BE3D1F8
:1039E4000B9B03F00103002B11D00A9B002B0ED07C
:1039F40006E00A9B013B0A9320210398FFF7EEFEA1
:103A04000A9B002B03D0069A0A9B9A42F1D300BF6B
:103A140009B05DF804FB00BF145C000000B589B078
:103A24000590049103920293049B002BB8BF5B4260
:103A340006930123079307E0039B069A92FBF3F393
:103A44000693079B01330793039B069A9A42F3DA82
:103A5400029A079B9A4201D9029B07930A9B002B67
:103A64000AD0049B002B04DB0B9B03F00403002B04
:103A740002D00A9B013B0A930B9B03F00203002B29
:103A840002D0029B002B16D00B9B03F00103002BEA
:103A940011D10A9B002B0ED006E00A9B013B0A932E
:103AA40020210598FFF79AFE0A9B002B03D0079A62
:103AB4000A9B9A42F1D3049B002B07DA049B5B42D6
:103AC40004932D210598FFF789FE08E00B9B03F072
:103AD4000403002B03D02B210598FFF77FFE0B9BDB
:103AE40003F00203002B19D00B9B03F00103002BFE
:103AF40014D1029B002B11D10A9B002B0ED006E09F
:103B04000A9B013B0A9330210598FFF767FE0A9B45
:103B1400002B03D0079A0A9B9A42F1D304990B9B7A
:103B240001930A9B0093029B039A0598FFF7DEFE1C
:103B340000BF09B05DF804FB00B58FB00590049197
:103B44000392059B002B04D1AD4940F25220FFF7AC
:103B540044FC059B5B69002B04D1A9494FF4157003
:103B6400FFF73BFC059B1B68002B04D1A44940F2E2
:103B74005520FFF732FC059B5B68002B04D1A0495C
:103B840040F25620FFF729FC049B002B00F09381A0
:103B9400049B1B788DF83730049B013304939DF804
:103BA4003730002B00F07E819DF83730252B40F014
:103BB4006D8100230A9301230C93049B1B788DF8D9
:103BC40037309DF83730302B0DD0302B1BDC2B2BAE
:103BD40011D02D2B17D10A9B43F001030A93049BA8
:103BE4000133049312E00A9B43F002030A93049BFB
:103BF400013304930AE00A9B43F004030A93049BF1
:103C04000133049302E000230C9300BF0C9B002BB0
:103C1400D3D1002309939DF837302A2B0CD1039B71
:103C24001B68191D039A11601B68099A13440993B0
:103C3400049B013304931AE0049B1B788DF83730FE
:103C44009DF837302F2B12D99DF83730392B0ED8E9
:103C5400049B01330493099A13469B0013445B00AD
:103C64001A469DF837301344303B0993D3E70023B9
:103C74000B93049B1B788DF837309DF837302E2B2F
:103C84001DD1049B01330493049B1B788DF83730BA
:103C94009DF837302F2B12D99DF83730392B0ED899
:103CA400049B013304930B9A13469B0013445B005B
:103CB4001A469DF837301344303B0B93E4E7049BDA
:103CC4001B788DF837309DF837306C2B03D09DF876
:103CD4003730682B07D1049B01330493049B1B7872
:103CE4008DF83730EFE79DF83730252B00F0C4808E
:103CF400252BC0F2C680782B00F3C380582BC0F26A
:103D0400C080583B202B00F2BC8001A252F823F063
:103D1400093E0000873E0000873E0000873E000009
:103D2400873E0000873E0000873E0000873E00007B
:103D3400873E0000873E0000873E0000993D00005A
:103D4400BB3D0000873E0000873E0000873E000028
:103D5400873E0000BB3D0000873E0000873E000018
:103D6400873E0000873E0000873E0000873E00003B
:103D7400493E0000873E0000873E00002D3E0000C3
:103D8400873E0000DF3D0000873E0000873E0000C4
:103D9400093E0000039B1B68191D039A11601B68F0
:103DA4000C930C9B8DF81F309DF81F301946059815
:103DB400FFF714FD66E0039B1B68191D039A11604D
:103DC4001B680C930A9B0193099B00930B9B0A228B
:103DD4000C990598FFF722FE54E0039B1B68191DFC
:103DE400039A11601B680C930C990A9B0193099B1D
:103DF40000930B9B0A220598FFF778FD42E000BF71
:103E0400C85B0000039B1B68191D039A11601B68A3
:103E14000C930C990A9B0193099B00930B9B102212
:103E24000598FFF763FD2DE0039B1B68191D039A9A
:103E340011601B6808930A9B099A08990598FFF773
:103E4400F3FC1FE0039B1B68191D039A11601B6898
:103E54000C9330210598FFF7C1FC78210598FFF7F2
:103E6400BDFC0C990023019308230093082310221E
:103E74000598FFF73BFD05E025210598FFF7AEFC0B
:103E840000E000BF049B0133049305E09DF8373044
:103E940019460598FFF7A2FC049B1B78002B7FF4BE
:103EA40077AE00E000BF059B1B7B002B04D0059878
:103EB400FFF738FC00E000BF0FB05DF804FB00BF63
:103EC40000B583B001900198FFF762FB03461846E2
:103ED40003B05DF804FB00B58BB001900091019B29
:103EE4001B8A043B0793009A079B1344DA1C079B25
:103EF400B2FBF3F38DF81B300198FFF7A5FB059097
:103F0400059B002B01D1002338E0059B00221A7188
:103F1400059B01225A71079B9AB2059BDA80059B87
:103F240009939DF81B30013B0493099B019A1A6085
:103F3400002308931DE00198FFF786FB0390039B81
:103F4400002B0ED0059B5B790133DAB2059B5A71C5
:103F5400099B039A1A60039B019A1A60039B0993B5
:103F640004E0059800F00EF8002307E0089B0133F5
:103F74000893089A049B9A42DDD3059B18460BB01C
:103F84005DF804FB00B58BB00190019B0793079B80
:103F94005B798DF81B30019B08939DF81B30013B26
:103FA40005930023099305E0089B1B680893099B6C
:103FB40001330993099A059B9A42F5D3089B1B6820
:103FC4000493019B0893002309930BE0089B1B684F
:103FD400039308990498FFF779FB039B0893099BC3
:103FE400013309939DF81B30099A9A42EED300BF1E
:103FF40000BF0BB05DF804FB00B585B00190019BD8
:104004000393039B043301211846FFF743FA00BFCF
:1040140005B05DF804FB00B587B00190019B0593E2
:10402400059B043301211846FFF74CFA034603931A
:1040340003AB0493049B1B78002B02D10198FFF778
:10404400A1FF00BF07B05DF804FB000000B591B00C
:104054000390029101920093039B002B03D14349E7
:10406400B620FFF7BAF9039B0993039B0F93099BAF
:10407400DB881A46099B5B7902FB03F3043B089334
:10408400009A089B9A4203D33849C420FFF7A5F944
:10409400099BDB880793009B1A1D079BB2FBF3F374
:1040A4000E93009B0433079AB3FBF2F2079901FBCA
:1040B40002F29B1A0D93019B1A68009B1344089A01
:1040C4009A4203D2089A009BD31A01E0019B1B6811
:1040D4000C93019B0C9A1A6005E00F9B1B680F93CD
:1040E4000E9B013B0E930E9B002BF6D100230B93EA
:1040F400079A0D9BD31A0A930A9A0C9B934228BFE2
:1041040013460A932AE0029A0B9B134406930F9AD0
:104114000D9B1344043305939DF84830002B05D0C0
:104124000A9A0599069801F02DFA04E00A9A06996C
:10413400059801F027FA00230D930F9B1B680F933A
:104144000C9A0A9BD31A0C930B9A0A9B13440B9355
:10415400079A0C9B934228BF13460A930C9B002B8F
:10416400D1D100BF00BF11B05DF804FB245C000096
:1041740000B589B00590049103920293039B0793C1
:1041840007AA00230093029B04990598FFF75EFF9A
:10419400079B039A9A4203D00349F620FFF71DF9BF
:1041A40000BF09B05DF804FB245C000000B589B0D1
:1041B4000590049103920293039B079307AA01239A
:1041C4000093029B04990598FFF740FF079B039A0D
:1041D4009A4204D004494FF48070FFF7FEF800BF00
:1041E40009B05DF804FB00BF245C000082B00190BC
:1041F400019B9B6800229A60019B9B6800221A61C4
:10420400019B9B6800225A61019B9B680022DA6033
:10421400019B9B6800225A60019B9B6800221A60E4
:1042240000BF02B07047000000B585B0019001984E
:1042340000F00EF80390039B002B01D0039B00E0D9
:10424400024B184605B05DF804FB00BF745C000027
:1042540086B00190164B0593164B04931FE0049A05
:10426400059BD31ADB10DA0F13445B10DB00059AAD
:1042740013440393039B1B680293029A019B9A4283
:1042840002D9039B04930AE0029A019B9A4203D247
:10429400039B0833059302E0039B5B6804E0059AE3
:1042A400049B9A42DBD30023184606B0704700BF34
:1042B400486000006061000000B5A1B00590049161
:1042C400039202930498FFF797FE039B1593029BB6
:1042D40016930023179300238DF86030002319935D
:1042E400229B1A9300231F930FA91F9B0822049853
:1042F400FFF75CFF08231F93119B1293BDF8403016
:10430400ADF84C30BDF84230ADF84E3000238DF896
:1043140051309DF83C3003F00303DBB2012B26D16E
:104324000F9BC3F395231C939DF83C30C3F3C20346
:10433400DBB28DF85030BDF83C30C3F38313DBB2ED
:104344001B931B9B9A0009A91F9B0498FFF72EFF40
:104354001B9B9B001F9A13441F9312AA09A915AB18
:10436400009313461B9A1C9800F0D0FF2FE09DF891
:104374003C3003F00303DBB2022B28D1BDF83E30FE
:10438400C3F389139BB21E939DF83C30C3F3C2035D
:10439400DBB28DF850301E9B082B28BF08231D93D9
:1043A40007A91F9B1D9A0498FFF700FF1F9A1D9BE6
:1043B40013441F931E9A1D9BD31A1E9315AB12AA66
:1043C40007A81D9901F044F81E9B002BE3D1049823
:1043D400FFF721FE00BF21B05DF804FB00B583B0F8
:1043E4000190019B1B781A460C4B9B5C002B05D05B
:1043F400019B04331846FEF755FB0BE0019B1B7829
:104404001A46064B9B5C002B04D1019B0C331846C7
:10441400FDF78AFB00BF03B05DF804FB84000020B5
:1044240000B587B00390029113468DF8073000233E
:104434000593039B1B781A46114B9B5C002B09D0F8
:10444400039B04339DF8072002991846FEF78CFB62
:1044540005900FE0039B1B781A46094B9B5C002BCD
:1044640008D1039B0C339DF8072002991846FDF7E9
:10447400D3FB0590059B184607B05DF804FB00BF0D
:104484008400002082B001900091034B01221A7035
:1044940000BF02B0704700BFAC01002030B58DB042
:1044A40003468DF807301A4B02AC1D460FCD0FC4DE
:1044B40095E80F0084E80F00062302934FF0FF33C2
:1044C40003934FF0FF3304934FF0FF3305934FF002
:1044D400EB7308939DF80730002B01D00D4A00E0E0
:1044E400002202AB19460C48FCF7ACFB0B900B9B6B
:1044F4000A930A9B002B04D0084A43210A98FEF72A
:1045040079FE074A9DF80730137000BF0DB030BD27
:10451400B8610000894400000400002060610000CC
:10452400AD01002000B583B001238DF807309DF85C
:1045340007301846FFF7B2FF00BF03B05DF804FB75
:1045440000B589B0039002910192019B8DF81F3050
:10455400124B00221A709DF81F301A460299104817
:10456400FFF75EFF0690069B0593059B002B04D086
:104574000C4A53210598FEF73DFE00BF0A4B1B78F9
:10458400002B07D0054B1B78DBB283F00103DBB2B1
:10459400002BF3D100BF09B05DF804FBAC0100208F
:1045A4000400002060610000AD01002000B585B06A
:1045B40003900291054B00934023054A0299039806
:1045C400FFF77AFE00BF05B05DF804FB4545000027
:1045D4006C01002082B0019000BF02B0704700005F
:1045E40000B583B001900548FFF7F8FE0020FFF7FF
:1045F40055FF00BF03B05DF804FB00BF04000020BA
:1046040082B00190019BDB6801225A7100BF02B0A5
:104614007047000000B583B04FF0FF330193FFF7FC
:1046240081FF0421084800F08DFD0190019B002BBF
:1046340003DA06494820FEF7D0FE0348FFF7E0FFFF
:1046440000BF03B05DF804FBE4560000F86100000D
:1046540000B583B001900091019B1B681B68009911
:104664000198984700BF03B05DF804FB00B583B020
:104674000190019B1B685B680198984700BF03B0D9
:104684005DF804FB00B583B00190019B1B689B6837
:104694000198984700BF03B05DF804FB82B0019015
:1046A4000B468DF80330019BDB689DF803201A71DB
:1046B40000BF02B0704782B00190019BDB681B7998
:1046C400184602B0704782B00190019BDB6801225A
:1046D4005A7100BF02B0704782B00190019BDB6841
:1046E4005B79184602B0704700B585B0019000911F
:1046F4000C4B00221A700C48FFF7E2FB0390039B5B
:10470400002B01D0039B08E00848FFF76FFD084A1F
:10471400084BD31ADB0802930023184605B05DF852
:1047240004FB00BF18030020F4560000546200008C
:10473400E4560000BC560000024A034BD31ADB08BF
:1047440018467047E4560000BC56000000B587B018
:1047540001900B468DF803309DF80330002B1FD0D9
:10476400FFF7EAFF04900023059313E0059B9B00E9
:104774000E4A13440393039B1B881A46019B1B6830
:104784009A4204D1019B059A1A60002309E0059B13
:1047940001330593059A049B9A42E7D3052300E06D
:1047A4000023184607B05DF804FB00BF000000209A
:1047B40000B585B001900B468DF803309DF80320B9
:1047C40001AB11461846FFF7C1FF0346002B07D182
:1047D400019BDB00054A13440393039B1B6800E021
:1047E4000023184605B05DF804FB00BFBC5600006A
:1047F40084B001900B468DF80330019BDB00174A0F
:10480400134402939DF80330013B032B1CD801A2EF
:1048140052F823F0294800003148000039480000CC
:104824004348000002238DF80F3011E004238DF873
:104834000F300DE0029B1B798DF80F3008E0029BCE
:104844005B798DF80F3003E000238DF80F3000BF43
:104854009DF80F30184604B0704700BFBC560000E6
:1048640084B00190009100238DF80F30019B1B78D8
:1048740003F00403DBB2002B24D0019B1B78C3F3A9
:104884000103DBB2012B02D0022B0CD017E0009BFA
:104894001B68019A1288C2F38312D2B213449A1C81
:1048A400009B1A600BE0009B1B68019A5288C2F3BC
:1048B400891292B213449A1C009B1A6000BF012310
:1048C4008DF80F309DF80F30184604B07047000083
:1048D40000B58BB00023ADF826303E48FEF70AFE43
:1048E4003D48FEF707FE3D4B9B6804933C4B1B6819
:1048F4000693049A069B134002339B00374A1344E1
:104904000433089304AB19460898FFF7A9FF03463C
:10491400002B09D0049A069B134002339B002F4AB4
:10492400134404330893EDE700BF0023079311E019
:10493400049B5A1C0492069A1340079A920001A9F8
:104944000A44264902339B000B445B681360079BAF
:1049540001330793079B012BEAD99DF80430C3F375
:104964000103DBB2012B10D0022B1CD1BDF80A309D
:10497400ADF82630BDF80630C3F389139BB2033378
:104984009A08049B1344049313E0BDF80A30ADF86D
:104994002630BDF80430C3F38313DBB21A46049BFC
:1049A4001344049305E00F494FF4C270FEF715FD5C
:1049B40000BF0948FEF7AAFD0590059B002B02D015
:1049C400049B064A9360BDF8263018460BB05DF888
:1049D40004FB00BF300700202C0700201803002030
:1049E400200000206462000000B585B00021074863
:1049F400FEF709FD0390039B0293029B83F31003CC
:104A04000193019B184605B05DF804FB34070020B0
:104A140000B589B00390029101920093039B1B0C93
:104A24000793FFF7E1FF0690FFF786FE0246079B18
:104A3400934204D3214940F2A910FEF7CEFC069B11
:104A44001904009B5A1C0A9B1340079A0A431C49E9
:104A540002339B000B445A60009A0A9B13400233B2
:104A64009B00174A134404330593039B03F0070385
:104A7400D9B2059A137861F3C5031370019B03F04F
:104A84000F03D9B2059A138861F389131380029B2B
:104A9400C3F31501059A136861F39F231360059A04
:104AA4001378012161F301031370059A137823F03D
:104AB4000403137000BF09B05DF804FB64620000D6
:104AC4001803002000BF704700B58BB0039002911B
:104AD40013468DF80730039B0233089301238DF8A6
:104AE4001F300020FEF732FC3E4B5A68029B1A60CE
:104AF4003D4B1A683B4B99683A4B5B68CB1A13449D
:104B04000133099314E001213848FEF7C3FCFFF791
:104B1400DFFE059005993548FEF7BCFC324B1A6858
:104B2400304B99682F4B5B68CB1A134401330993BC
:104B3400089A099B9A42E6D89DF81F30002B48D06A
:104B4400002304939DF80730002B17D09DF81030F4
:104B5400012262F301038DF810309DF8103043F008
:104B640004038DF81030039B03F00F03DAB2BDF891
:104B7400103062F38913ADF8103016E09DF8103050
:104B8400022262F301038DF810309DF8103043F0D7
:104B940004038DF81030039BC3F309039AB2BDF8E4
:104BA400123062F38F13ADF812300E4B5A680E4B6D
:104BB4001B68134002339B000A4A134404330693D0
:104BC400049A069B1A60074B5A68089B1344054ACB
:104BD40053600020FEF7CEFB9DF81F3018460BB043
:104BE4005DF804FB18030020200000203407002097
:104BF40000B58BB005900491039202931F4B1B6880
:104C0400079306AB012219460298FFF75DFF03469E
:104C1400002B24D0069B023309930023089311E050
:104C2400089B9B00039A1A44099B591C09910799F4
:104C34000B401268124902339B000B445A60089BD4
:104C440001330893089A029B9A42E9D3069A079B78
:104C540000931346029A04990598FFF7D9FE084B6E
:104C64001B78002B04D000F069F80346002BFAD11E
:104C7400FFF728FF00BF0BB05DF804FB2000002005
:104C84001803002000B583B0019000910023002296
:104C940000990198FFF7ACFF00BF03B05DF804FB77
:104CA40000B587B0039002910192019B059305AA78
:104CB400012302990398FFF79BFF00BF07B05DF83B
:104CC40004FB00B587B00390029101920093019B0D
:104CD4000493009B059304AA022302990398FFF707
:104CE40087FF00BF07B05DF804FB00B58BB00390ED
:104CF400029101920093019B0593009B06930C9BE8
:104D040007930D9B08930E9B099305AA052302990B
:104D14000398FFF76DFF00BF0BB05DF804FB0000C4
:104D2400054B9A68044B5B689A420CBF012300232D
:104D3400DBB21846704700BF1803002000B599B0D5
:104D4400FFF7EEFF0346002B01D00023B9E19B4B94
:104D54000022C3F81824BFF34F8F00BF974B9B6802
:104D64000493974B1B681093049A109B13400233CF
:104D74009B00924A13440433119300231793002396
:104D8400169300230F9304AB19461198FFF768FD9F
:104D94000346002B19D0894BD3F81834002B14D1B7
:104DA400864B5A68049B9A4205D8844B5B68834AB5
:104DB4009360002385E1049A109B134002339B0007
:104DC4007E4A134404331193DDE70023159311E065
:104DD400049B5A1C0492109A1340159A920001A93C
:104DE4000A44764902339B000B445B681360159BAD
:104DF40001331593159B012BEAD99DF8043003F078
:104E04000303DBB2022B40F09C80BDF80630C3F3F1
:104E140089139BB20D93BDF80630C3F389139BB27B
:104E2400502B28BF50239BB20C930C9BC3F3090354
:104E34009AB2BDF8063062F38F13ADF806300C9BBE
:104E440008330B939DF80430C3F3C203DBB20F9312
:104E54000B995C48FFF73FF81790179B002B00F065
:104E6400D3801798FFF7C8F801A9169B0822179852
:104E7400FFF77EF9169B08331693049BDA43109BC5
:104E8400134001339B000A930C9A0A9B9A4242D91D
:104E94000A9B002B08D0049A109B134002339B00FA
:104EA400464A1344043300E0474B08930A9B002B03
:104EB40002D00A9BDBB201E00C9BDBB28DF81F3001
:104EC4000A9B002B01D0404B00E0002306930A9B71
:104ED400002B06D00C9BDAB20A9BDBB2D31ADBB2EE
:104EE40000E000238DF817309DF81F20169B0899C9
:104EF4001798FFF73DF99DF81F30169A134416933F
:104F0400069B002B16D09DF81720169B0699179820
:104F1400FFF72EF90EE0049A109B134002339B0016
:104F2400264A134404330993169B0C9A099917983B
:104F3400FFF71EF90D9B03339A08049B1344049353
:104F440062E09DF8043003F00303DBB2012B5BD174
:104F5400BDF80430C3F38313DBB2062B28BF06234A
:104F6400DAB2BDF8043062F38913ADF80430BDF849
:104F74000430C3F38313DBB202330E939DF8043081
:104F8400C3F3C203DBB20F930E9B9B0019460D487B
:104F9400FEF7A1FF1790179B002B35D01798FFF74A
:104FA4002BF801A9169B08221798FFF7E1F8169B26
:104FB40008331693002315931DE000BF1803002047
:104FC40020000020F456000024030020049B5A1CF7
:104FD4000492109A134002339B003C4A1344191D57
:104FE400169B04221798FFF7C3F8169B04331693F5
:104FF400159B01331593BDF80430C3F38313DBB25F
:105004001A46159B9342E1D3179B002B39D02F4BA3
:10501400D3F8103414932D4BD3F81834002B1BD031
:105024001798FEF7F8FF46E000238DF84F301498E8
:10503400FFF752FB0346002B02D001238DF84F30BB
:105044009DF84F30002B03D017991498FFF700FBFD
:10505400149BDB681B681493149B002BE4D11798F2
:10506400FEF7D9FF0020FEF771F9184BD3F8183476
:10507400002B02D1049B154A93600020FEF77AF9B5
:1050840019E0124BD3F81034129306E01298FFF78C
:10509400F9FA129BDB681B681293129B002BF5D163
:1050A4000B4A0C4BD31ADB081B0443F002030A49D6
:1050B4001846FFF7E7FDFFF733FE034683F00103CD
:1050C400DBB2184619B05DF804FB00BF18030020DA
:1050D400DC560000BC560000B862000000B585B084
:1050E4000023039323E0164BD3F8103402930123D7
:1050F4008DF807300FE00298FFF7DDFA03461A46F1
:10510400039B934203D100238DF8073006E0029BF2
:10511400DB681B680293029B002BECD19DF80730DF
:10512400002B01D0039B07E0039B01330393039BF4
:10513400092BD8DD4FF0FF33184605B05DF804FBAA
:105144001803002000B585B001900B468DF803309C
:10515400FFF7C4FF0390039BB3F1FF3F01D1039B0F
:1051640022E0039BDBB219460198FFF797FA104B34
:10517400D3F81034002B08D10D4A019BC2F8103427
:10518400019BDB6800221A600DE0094BD3F8103450
:10519400DA68019BDB6812681A60054BD3F8103497
:1051A400DB68019A1A60039B184605B05DF804FB9E
:1051B4001803002000B583B00C4BD3F810340193CE
:1051C4000A4B01221A7009E00198FFF77CFA019852
:1051D400FFF74CFA019BDB681B680193019B002BD2
:1051E400F2D100BF00BF03B05DF804FB1803002038
:1051F40082B00190009100BF02B0704710B584B036
:1052040003900291039BDB88002B0AD0039BDB886D
:105214001A461F4B009313461E4A1F490298FEF775
:10522400A3FA039B1B7A052B2ED0039B5B7A002BDE
:1052340012D0039B9B881A46039B1B7A194610467F
:10524400FFF7D6FA03461A46144B53F822301A468F
:1052540013490298FEF788FA039B1B6819460298C3
:10526400FFF7C6FF039B1B7A1A460E4B53F82240E6
:10527400039B9B8800211846FFF79AFA03462246AF
:1052840009490298FEF770FA00BF04B010BD00BFD0
:10529400EC620000FC62000034630000380000206F
:1052A4004C630000240000205063000000B585B06A
:1052B4000390029113468DF80730039B1B7A052B4C
:1052C4000FD0039B5B7A002B06D00D4B1B681A464C
:1052D4000C490298FEF748FA0B490298FEF744FA83
:1052E40007E09DF80730002B03D007490298FEF72A
:1052F4003BFA0298FEF716FA00BF05B05DF804FB0E
:10530400380000204C6300005C63000030B58BB0B3
:1053140007900691059204930E9B1B7B8DF8273012
:105324000E9B00221A730E990498FFF767FF059BE2
:10533400062B7FD801A252F823F000BF5D53000072
:1053440067530000775300008B530000A9530000FB
:10535400D15300000154000007990E98FEF704FA97
:1053640069E0069B1B681A4607990E98FEF7FCF93C
:1053740061E0069B1A68069B04331B6807990E9824
:10538400FEF7F2F957E0069B1A68069B0433196886
:10539400069B08331B6800930B4607990E98FEF78B
:1053A400E3F948E0069B1968069B04331868069BDA
:1053B40008331B68069A0C32126801920093034664
:1053C4000A4607990E98FEF7CFF934E0069B186851
:1053D400069B04331C68069B08331B68069A0C3230
:1053E40012680699103109680291019200932346CC
:1053F400024607990E98FEF7B7F91CE0069B1C6855
:10540400069B04331D68069B08331B68069A0C32FE
:1054140012680699103109680698143000680390E0
:105424000291019200932B46224607990E98FEF7AB
:105434009BF900E000BF00220E990498FFF736FFA5
:105444000E9B9DF827201A7300BF0BB030BD00BF20
:1054540000B587B00390029101920093029B082B40
:1054640060D8009B1B7B8DF81330009B00221A73BD
:1054740000990198FFF7C2FE0023059314E0059AF2
:10548400029B9A4209D2039A059B13441B781A463D
:1054940026490098FEF768F903E025490098FEF7CD
:1054A40063F9059B01330593059B072BE7D9214934
:1054B4000098FEF759F90023059326E0059A029B0C
:1054C4009A421BD2039A059B13441B788DF8123021
:1054D4009DF812307E2B0AD89DF81230184600F041
:1054E400A0F80346002B02D09DF8123000E02E23D2
:1054F4001A4611490098FEF737F903E00F4900985E
:10550400FEF732F9059B01330593059B072BD5D98B
:10551400012200990198FFF7C9FE009B9DF8132012
:105524001A7300E000BF07B05DF804FB606300007D
:10553400686300006C630000706300007463000023
:10554400082938BF7047416040F23871C2F2000147
:1055540008600021016070470178002904BF002021
:10556400704700214FF001324358C2FA53F304311B
:10557400002BF9D093FAA3F0B0FA80F001EBD0003D
:10558400043870475AB3844690EA01039B071FD13D
:10559400830707D011F8013B00F8013B013AF7D12A
:1055A4001CE08446203A09D32DE9F007B1E8F80756
:1055B400A0E8F807203AF9D2BDE8F0071C3205D478
:1055C40051F8043B40F8043B043AF9D2043205D0C4
:1055D40011F8013B00F8013B013AF9D160467047EC
:1055E40084460020002918BF002A00D1704709789A
:1055F40048B2002844BF6FF001007047BCF1000FAF
:1056040018BFCCF800100021C3E90011002818BF0E
:10561400012070477F298EBF6FF0010001700120C7
:10562400704740F23C71C2F200010968002904BFCE
:1056340040F25C01C2F20001496889680A680921E4
:1056440010477F2884BF0020704746F28C52C0F276
:105654000002515C46F20C52C0F20002105C084099
:105664007047A0F161011A2938BF20387047A0F1B2
:1056740041011A2938BF40F0200070477F2884BFB9
:105684000020704746F28C52C0F20002515C46F290
:105694000C52C0F20002105C08407047A0F1610196
:1056A4001A2938BF20387047A0F141011A2938BFA0
:0856B40040F0200070470000E7
:1056BC00FC57000000000000AC5800000000000087
:1056CC006059000000000000185A000000000000A3
:0856DC006062000000000303FE
:1056E400D861000000000000E46100001800002000
:1056F40078020020B0010020B8010020B801002089
:045704001800000089
:1057080000000000002000400000000000200040D1
:105718000000000052656365697665643A20256378
:1057280000000000433A5C6E7266353273646B5C4D
:105738006E5246355F53444B5F31372E312E305F02
:10574800646464653536305C6578616D706C65736A
:105758005C4D592050524F4A454354535C74776905
:105768005F7363616E6E65725C6D61696E2E630056
:10577800FFFFFFFFFFFFFFFFFFFFFFFFFFFFFFFF31
:1057880000000000000000000000D6010601000033
:1057980055415254204563686F20546573742053F3
:1057A8007461727465642E00433A5C6E72663532B9
:1057B80073646B5C6E5246355F53444B5F31372ED2
:1057C800312E305F646464653536305C696E7465AB
:1057D80067726174696F6E5C6E7266785C6C65671F
:1057E8006163795C6E72665F6472765F756172740C
:1057F8002E63000050525300433A5C6E7266353295
:1058080073646B5C6E5246355F53444B5F31372E81
:10581800312E305F646464653536305C6D6F647555
:105828006C65735C6E7266785C64726976657273B7
:105838005C7372635C7072735C6E7266785F7072B0
:10584800732E63002E2E2F2E2E2F2E2E2F2E2E2F20
:105858002E2E2F2E2E2F696E746567726174696FF4
:105868006E2F6E7266782F6E7266785F676C7565DC
:105878002E6800002E2E2F2E2E2F2E2E2F2E2E2F5E
:105888002E2E2F2E2E2F6D6F64756C65732F6E72F2
:1058980066782F68616C2F6E72665F6770696F2E0D
:1058A800680000005457494D00000000433A5C6E00
:1058B8007266353273646B5C6E5246355F53444B87
:1058C8005F31372E312E305F646464653536305C65
:1058D8006D6F64756C65735C6E7266785C64726912
:1058E800766572735C7372635C6E7266785F7477E8
:1058F800696D2E63000000002E2E2F2E2E2F2E2EC7
:105908002F2E2E2F2E2E2F2E2E2F696E7465677236
:105918006174696F6E2F6E7266782F6E7266785F2B
:10592800676C75652E6800002E2E2F2E2E2F2E2EBA
:105938002F2E2E2F2E2E2F2E2E2F6D6F64756C6509
:10594800732F6E7266782F68616C2F6E72665F6750
:1059580070696F2E68000000554152540000000025
:10596800433A5C6E7266353273646B5C6E524635D0
:105978005F53444B5F31372E312E305F646464656A
:105988003536305C6D6F64756C65735C6E72667805
:105998005C647269766572735C7372635C6E72665E
:1059A800785F756172742E63000000003922000070
:1059B8002E2E2F2E2E2F2E2E2F2E2E2F2E2E2F2EFA
:1059C8002E2F696E746567726174696F6E2F6E72BF
:1059D80066782F6E7266785F676C75652E68000052
:1059E8002E2E2F2E2E2F2E2E2F2E2E2F2E2E2F2ECA
:1059F8002E2F6D6F64756C65732F6E7266782F68C5
:105A0800616C2F6E72665F6770696F2E68000000A8
:105A18005541525445000000433A5C6E7266353277
:105A280073646B5C6E5246355F53444B5F31372E5F
:105A3800312E305F646464653536305C6D6F647533
:105A48006C65735C6E7266785C6472697665727395
:105A58005C7372635C6E7266785F75617274652ED2
:105A68006300000049310000415353455254494FE7
:105A78004E204641494C45442061742025733A25FF
:105A8800750000004552524F52202575205B257342
:105A98005D2061742025733A25750D0A50432061F5
:105AA800743A20307825303878000000456E64203C
:105AB8006F66206572726F72207265706F72740003
:105AC800554E4B4E4F574E204641554C542061740D
